{
  "contractName": "CertiChain",
  "abi": [
    {
      "anonymous": false,
      "inputs": [
        {
          "indexed": false,
          "internalType": "string",
          "name": "certID",
          "type": "string"
        },
        {
          "indexed": false,
          "internalType": "string",
          "name": "issuingAuthorityName",
          "type": "string"
        }
      ],
      "name": "CertificateIssued",
      "type": "event"
    },
    {
      "anonymous": false,
      "inputs": [
        {
          "indexed": false,
          "internalType": "string",
          "name": "certID",
          "type": "string"
        }
      ],
      "name": "CertificateRevoked",
      "type": "event"
    },
    {
      "anonymous": false,
      "inputs": [
        {
          "indexed": false,
          "internalType": "string",
          "name": "institutionID",
          "type": "string"
        }
      ],
      "name": "InstitutionRegistered",
      "type": "event"
    },
    {
      "anonymous": false,
      "inputs": [
        {
          "indexed": false,
          "internalType": "string",
          "name": "userId",
          "type": "string"
        }
      ],
      "name": "UserRegistered",
      "type": "event"
    },
    {
      "constant": false,
      "inputs": [
        {
          "internalType": "string",
          "name": "_institutionID",
          "type": "string"
        },
        {
          "components": [
            {
              "internalType": "string",
              "name": "institutionName",
              "type": "string"
            },
            {
              "internalType": "string",
              "name": "affiliation",
              "type": "string"
            },
            {
              "internalType": "string",
              "name": "regNumber",
              "type": "string"
            },
            {
              "internalType": "string",
              "name": "dateOfEstablishment",
              "type": "string"
            },
            {
              "internalType": "string",
              "name": "institutionType",
              "type": "string"
            },
            {
              "internalType": "string",
              "name": "streetAddress",
              "type": "string"
            },
            {
              "internalType": "string",
              "name": "city",
              "type": "string"
            },
            {
              "internalType": "string",
              "name": "state",
              "type": "string"
            },
            {
              "internalType": "string",
              "name": "postalCode",
              "type": "string"
            },
            {
              "internalType": "string",
              "name": "country",
              "type": "string"
            },
            {
              "internalType": "string",
              "name": "officialEmail",
              "type": "string"
            },
            {
              "internalType": "string",
              "name": "phoneNumber",
              "type": "string"
            },
            {
              "internalType": "string",
              "name": "adminName",
              "type": "string"
            },
            {
              "internalType": "string",
              "name": "adminDesignation",
              "type": "string"
            },
            {
              "internalType": "string",
              "name": "adminEmail",
              "type": "string"
            },
            {
              "internalType": "string",
              "name": "adminPhone",
              "type": "string"
            },
            {
              "internalType": "bool",
              "name": "exists",
              "type": "bool"
            }
          ],
          "internalType": "struct CertiChain.Institution",
          "name": "_institution",
          "type": "tuple"
        }
      ],
      "name": "registerInstitution",
      "outputs": [],
      "payable": false,
      "stateMutability": "nonpayable",
      "type": "function"
    },
    {
      "constant": true,
      "inputs": [
        {
          "internalType": "string",
          "name": "_institutionID",
          "type": "string"
        }
      ],
      "name": "getInstitution",
      "outputs": [
        {
          "components": [
            {
              "internalType": "string",
              "name": "institutionName",
              "type": "string"
            },
            {
              "internalType": "string",
              "name": "affiliation",
              "type": "string"
            },
            {
              "internalType": "string",
              "name": "regNumber",
              "type": "string"
            },
            {
              "internalType": "string",
              "name": "dateOfEstablishment",
              "type": "string"
            },
            {
              "internalType": "string",
              "name": "institutionType",
              "type": "string"
            },
            {
              "internalType": "string",
              "name": "streetAddress",
              "type": "string"
            },
            {
              "internalType": "string",
              "name": "city",
              "type": "string"
            },
            {
              "internalType": "string",
              "name": "state",
              "type": "string"
            },
            {
              "internalType": "string",
              "name": "postalCode",
              "type": "string"
            },
            {
              "internalType": "string",
              "name": "country",
              "type": "string"
            },
            {
              "internalType": "string",
              "name": "officialEmail",
              "type": "string"
            },
            {
              "internalType": "string",
              "name": "phoneNumber",
              "type": "string"
            },
            {
              "internalType": "string",
              "name": "adminName",
              "type": "string"
            },
            {
              "internalType": "string",
              "name": "adminDesignation",
              "type": "string"
            },
            {
              "internalType": "string",
              "name": "adminEmail",
              "type": "string"
            },
            {
              "internalType": "string",
              "name": "adminPhone",
              "type": "string"
            },
            {
              "internalType": "bool",
              "name": "exists",
              "type": "bool"
            }
          ],
          "internalType": "struct CertiChain.Institution",
          "name": "",
          "type": "tuple"
        }
      ],
      "payable": false,
      "stateMutability": "view",
      "type": "function"
    },
    {
      "constant": false,
      "inputs": [
        {
          "internalType": "string",
          "name": "_certID",
          "type": "string"
        },
        {
          "internalType": "string",
          "name": "_studentName",
          "type": "string"
        },
        {
          "internalType": "string",
          "name": "_course",
          "type": "string"
        },
        {
          "internalType": "string",
          "name": "_issueDate",
          "type": "string"
        },
        {
          "internalType": "string",
          "name": "_dob",
          "type": "string"
        },
        {
          "internalType": "string",
          "name": "_courseDuration",
          "type": "string"
        },
        {
          "internalType": "string",
          "name": "_issuingAuthorityName",
          "type": "string"
        },
        {
          "internalType": "string",
          "name": "_userEmail",
          "type": "string"
        }
      ],
      "name": "issueCertificate",
      "outputs": [],
      "payable": false,
      "stateMutability": "nonpayable",
      "type": "function"
    },
    {
      "constant": true,
      "inputs": [
        {
          "internalType": "string",
          "name": "_certID",
          "type": "string"
        }
      ],
      "name": "getCertificate",
      "outputs": [
        {
          "components": [
            {
              "internalType": "string",
              "name": "certID",
              "type": "string"
            },
            {
              "internalType": "string",
              "name": "studentName",
              "type": "string"
            },
            {
              "internalType": "string",
              "name": "course",
              "type": "string"
            },
            {
              "internalType": "string",
              "name": "issueDate",
              "type": "string"
            },
            {
              "internalType": "string",
              "name": "dob",
              "type": "string"
            },
            {
              "internalType": "string",
              "name": "courseDuration",
              "type": "string"
            },
            {
              "internalType": "string",
              "name": "issuingAuthorityName",
              "type": "string"
            },
            {
              "internalType": "string",
              "name": "userEmail",
              "type": "string"
            },
            {
              "internalType": "bool",
              "name": "exists",
              "type": "bool"
            }
          ],
          "internalType": "struct CertiChain.Certificate",
          "name": "",
          "type": "tuple"
        }
      ],
      "payable": false,
      "stateMutability": "view",
      "type": "function"
    },
    {
      "constant": false,
      "inputs": [
        {
          "internalType": "string",
          "name": "_certID",
          "type": "string"
        }
      ],
      "name": "revokeCertificate",
      "outputs": [],
      "payable": false,
      "stateMutability": "nonpayable",
      "type": "function"
    },
    {
      "constant": false,
      "inputs": [
        {
          "internalType": "string",
          "name": "_userId",
          "type": "string"
        },
        {
          "components": [
            {
              "internalType": "string",
              "name": "userId",
              "type": "string"
            },
            {
              "internalType": "string",
              "name": "name",
              "type": "string"
            },
            {
              "internalType": "string",
              "name": "dob",
              "type": "string"
            },
            {
              "internalType": "string",
              "name": "phoneNumber",
              "type": "string"
            },
            {
              "internalType": "string",
              "name": "country",
              "type": "string"
            },
            {
              "internalType": "string",
              "name": "pincode",
              "type": "string"
            },
            {
              "internalType": "string",
              "name": "streetAddress",
              "type": "string"
            },
            {
              "internalType": "string",
              "name": "city",
              "type": "string"
            },
            {
              "internalType": "string",
              "name": "state",
              "type": "string"
            },
            {
              "internalType": "string",
              "name": "email",
              "type": "string"
            },
            {
              "internalType": "bool",
              "name": "exists",
              "type": "bool"
            }
          ],
          "internalType": "struct CertiChain.UserProfile",
          "name": "_profile",
          "type": "tuple"
        }
      ],
      "name": "registerUser",
      "outputs": [],
      "payable": false,
      "stateMutability": "nonpayable",
      "type": "function"
    },
    {
      "constant": true,
      "inputs": [
        {
          "internalType": "string",
          "name": "_userId",
          "type": "string"
        }
      ],
      "name": "getUser",
      "outputs": [
        {
          "components": [
            {
              "internalType": "string",
              "name": "userId",
              "type": "string"
            },
            {
              "internalType": "string",
              "name": "name",
              "type": "string"
            },
            {
              "internalType": "string",
              "name": "dob",
              "type": "string"
            },
            {
              "internalType": "string",
              "name": "phoneNumber",
              "type": "string"
            },
            {
              "internalType": "string",
              "name": "country",
              "type": "string"
            },
            {
              "internalType": "string",
              "name": "pincode",
              "type": "string"
            },
            {
              "internalType": "string",
              "name": "streetAddress",
              "type": "string"
            },
            {
              "internalType": "string",
              "name": "city",
              "type": "string"
            },
            {
              "internalType": "string",
              "name": "state",
              "type": "string"
            },
            {
              "internalType": "string",
              "name": "email",
              "type": "string"
            },
            {
              "internalType": "bool",
              "name": "exists",
              "type": "bool"
            }
          ],
          "internalType": "struct CertiChain.UserProfile",
          "name": "",
          "type": "tuple"
        }
      ],
      "payable": false,
      "stateMutability": "view",
      "type": "function"
    },
    {
      "constant": true,
      "inputs": [
        {
          "internalType": "string",
          "name": "_userId",
          "type": "string"
        }
      ],
      "name": "isUserRegistered",
      "outputs": [
        {
          "internalType": "bool",
          "name": "",
          "type": "bool"
        }
      ],
      "payable": false,
      "stateMutability": "view",
      "type": "function"
    }
  ],
  "bytecode": "0x608060405234801561001057600080fd5b506139e6806100206000396000f3fe608060405234801561001057600080fd5b50600436106100885760003560e01c8063a48cb7581161005b578063a48cb75814610111578063a5c28f811461012d578063a8cc77841461015d578063ed0f2e751461018d57610088565b8063126623e21461008d578063142e1542146100a957806331feb671146100c55780638007e6a3146100f5575b600080fd5b6100a760048036036100a29190810190612d87565b6101bd565b005b6100c360048036036100be9190810190612b68565b610408565b005b6100df60048036036100da9190810190612b68565b6104ea565b6040516100ec9190613843565b60405180910390f35b61010f600480360361010a9190810190612ba9565b610c00565b005b61012b60048036036101269190810190612d1b565b610e1f565b005b61014760048036036101429190810190612b68565b6112e6565b6040516101549190613821565b60405180910390f35b61017760048036036101729190810190612b68565b611dc8565b604051610184919061364b565b60405180910390f35b6101a760048036036101a29190810190612b68565b611e00565b6040516101b491906137ff565b60405180910390f35b6005826040516101cd9190613634565b9081526020016040518091039020600a0160009054906101000a900460ff161561022c576040517f08c379a00000000000000000000000000000000000000000000000000000000081526004016102239061375f565b60405180910390fd5b8060058360405161023d9190613634565b908152602001604051809103902060008201518160000190805190602001906102679291906123d2565b5060208201518160010190805190602001906102849291906123d2565b5060408201518160020190805190602001906102a19291906123d2565b5060608201518160030190805190602001906102be9291906123d2565b5060808201518160040190805190602001906102db9291906123d2565b5060a08201518160050190805190602001906102f89291906123d2565b5060c08201518160060190805190602001906103159291906123d2565b5060e08201518160070190805190602001906103329291906123d2565b506101008201518160080190805190602001906103509291906123d2565b5061012082015181600901908051906020019061036e9291906123d2565b5061014082015181600a0160006101000a81548160ff02191690831515021790555090505060016005836040516103a59190613634565b9081526020016040518091039020600a0160006101000a81548160ff0219169083151502179055507f270ff4b111e5baa49283562af127cc5ea74e9d6c9efd5465578bd9223d5843f0826040516103fc9190613666565b60405180910390a15050565b6004816040516104189190613634565b908152602001604051809103902060080160009054906101000a900460ff16610476576040517f08c379a000000000000000000000000000000000000000000000000000000000815260040161046d906136bf565b60405180910390fd5b60006004826040516104889190613634565b908152602001604051809103902060080160006101000a81548160ff0219169083151502179055507f266095b5af7e2323760fef151f1d78896740cd2cc1b73a6357ff9e4c3fdae740816040516104df9190613666565b60405180910390a150565b6104f2612452565b6005826040516105029190613634565b9081526020016040518091039020600a0160009054906101000a900460ff16610560576040517f08c379a0000000000000000000000000000000000000000000000000000000008152600401610557906136df565b60405180910390fd5b6005826040516105709190613634565b908152602001604051809103902060405180610160016040529081600082018054600181600116156101000203166002900480601f0160208091040260200160405190810160405280929190818152602001828054600181600116156101000203166002900480156106235780601f106105f857610100808354040283529160200191610623565b820191906000526020600020905b81548152906001019060200180831161060657829003601f168201915b50505050508152602001600182018054600181600116156101000203166002900480601f0160208091040260200160405190810160405280929190818152602001828054600181600116156101000203166002900480156106c55780601f1061069a576101008083540402835291602001916106c5565b820191906000526020600020905b8154815290600101906020018083116106a857829003601f168201915b50505050508152602001600282018054600181600116156101000203166002900480601f0160208091040260200160405190810160405280929190818152602001828054600181600116156101000203166002900480156107675780601f1061073c57610100808354040283529160200191610767565b820191906000526020600020905b81548152906001019060200180831161074a57829003601f168201915b50505050508152602001600382018054600181600116156101000203166002900480601f0160208091040260200160405190810160405280929190818152602001828054600181600116156101000203166002900480156108095780601f106107de57610100808354040283529160200191610809565b820191906000526020600020905b8154815290600101906020018083116107ec57829003601f168201915b50505050508152602001600482018054600181600116156101000203166002900480601f0160208091040260200160405190810160405280929190818152602001828054600181600116156101000203166002900480156108ab5780601f10610880576101008083540402835291602001916108ab565b820191906000526020600020905b81548152906001019060200180831161088e57829003601f168201915b50505050508152602001600582018054600181600116156101000203166002900480601f01602080910402602001604051908101604052809291908181526020018280546001816001161561010002031660029004801561094d5780601f106109225761010080835404028352916020019161094d565b820191906000526020600020905b81548152906001019060200180831161093057829003601f168201915b50505050508152602001600682018054600181600116156101000203166002900480601f0160208091040260200160405190810160405280929190818152602001828054600181600116156101000203166002900480156109ef5780601f106109c4576101008083540402835291602001916109ef565b820191906000526020600020905b8154815290600101906020018083116109d257829003601f168201915b50505050508152602001600782018054600181600116156101000203166002900480601f016020809104026020016040519081016040528092919081815260200182805460018160011615610100020316600290048015610a915780601f10610a6657610100808354040283529160200191610a91565b820191906000526020600020905b815481529060010190602001808311610a7457829003601f168201915b50505050508152602001600882018054600181600116156101000203166002900480601f016020809104026020016040519081016040528092919081815260200182805460018160011615610100020316600290048015610b335780601f10610b0857610100808354040283529160200191610b33565b820191906000526020600020905b815481529060010190602001808311610b1657829003601f168201915b50505050508152602001600982018054600181600116156101000203166002900480601f016020809104026020016040519081016040528092919081815260200182805460018160011615610100020316600290048015610bd55780601f10610baa57610100808354040283529160200191610bd5565b820191906000526020600020905b815481529060010190602001808311610bb857829003601f168201915b50505050508152602001600a820160009054906101000a900460ff1615151515815250509050919050565b600488604051610c109190613634565b908152602001604051809103902060080160009054906101000a900460ff1615610c6f576040517f08c379a0000000000000000000000000000000000000000000000000000000008152600401610c66906137df565b60405180910390fd5b60405180610120016040528089815260200188815260200187815260200186815260200185815260200184815260200183815260200182815260200160011515815250600489604051610cc29190613634565b90815260200160405180910390206000820151816000019080519060200190610cec9291906123d2565b506020820151816001019080519060200190610d099291906123d2565b506040820151816002019080519060200190610d269291906123d2565b506060820151816003019080519060200190610d439291906123d2565b506080820151816004019080519060200190610d609291906123d2565b5060a0820151816005019080519060200190610d7d9291906123d2565b5060c0820151816006019080519060200190610d9a9291906123d2565b5060e0820151816007019080519060200190610db79291906123d2565b506101008201518160080160006101000a81548160ff0219169083151502179055509050507f3ca9b880c8645562f6f6dae2ec8c6da0e58ddcc82681ed677eb65aaaaf5877428883604051610e0d929190613688565b60405180910390a15050505050505050565b600082604051610e2f9190613634565b908152602001604051809103902060100160009054906101000a900460ff1615610e8e576040517f08c379a0000000000000000000000000000000000000000000000000000000008152600401610e859061377f565b60405180910390fd5b60018160400151604051610ea2919061361d565b908152602001604051809103902060009054906101000a900460ff1615610efe576040517f08c379a0000000000000000000000000000000000000000000000000000000008152600401610ef59061373f565b60405180910390fd5b6002816101400151604051610f13919061361d565b908152602001604051809103902060009054906101000a900460ff1615610f6f576040517f08c379a0000000000000000000000000000000000000000000000000000000008152600401610f66906137bf565b60405180910390fd5b60038160000151604051610f83919061361d565b908152602001604051809103902060009054906101000a900460ff1615610fdf576040517f08c379a0000000000000000000000000000000000000000000000000000000008152600401610fd69061371f565b60405180910390fd5b80600083604051610ff09190613634565b9081526020016040518091039020600082015181600001908051906020019061101a9291906123d2565b5060208201518160010190805190602001906110379291906123d2565b5060408201518160020190805190602001906110549291906123d2565b5060608201518160030190805190602001906110719291906123d2565b50608082015181600401908051906020019061108e9291906123d2565b5060a08201518160050190805190602001906110ab9291906123d2565b5060c08201518160060190805190602001906110c89291906123d2565b5060e08201518160070190805190602001906110e59291906123d2565b506101008201518160080190805190602001906111039291906123d2565b506101208201518160090190805190602001906111219291906123d2565b5061014082015181600a01908051906020019061113f9291906123d2565b5061016082015181600b01908051906020019061115d9291906123d2565b5061018082015181600c01908051906020019061117b9291906123d2565b506101a082015181600d0190805190602001906111999291906123d2565b506101c082015181600e0190805190602001906111b79291906123d2565b506101e082015181600f0190805190602001906111d59291906123d2565b506102008201518160100160006101000a81548160ff021916908315150217905550905050600180826040015160405161120f919061361d565b908152602001604051809103902060006101000a81548160ff0219169083151502179055506001600282610140015160405161124b919061361d565b908152602001604051809103902060006101000a81548160ff021916908315150217905550600160038260000151604051611286919061361d565b908152602001604051809103902060006101000a81548160ff0219169083151502179055507f51403b4a82fa19d4c5d2c68db6f122f5ac878202af0e97dd82e59769856e980a826040516112da9190613666565b60405180910390a15050565b6112ee6124ae565b6000826040516112fe9190613634565b908152602001604051809103902060100160009054906101000a900460ff1661135c576040517f08c379a0000000000000000000000000000000000000000000000000000000008152600401611353906136ff565b60405180910390fd5b60008260405161136c9190613634565b908152602001604051809103902060405180610220016040529081600082018054600181600116156101000203166002900480601f01602080910402602001604051908101604052809291908181526020018280546001816001161561010002031660029004801561141f5780601f106113f45761010080835404028352916020019161141f565b820191906000526020600020905b81548152906001019060200180831161140257829003601f168201915b50505050508152602001600182018054600181600116156101000203166002900480601f0160208091040260200160405190810160405280929190818152602001828054600181600116156101000203166002900480156114c15780601f10611496576101008083540402835291602001916114c1565b820191906000526020600020905b8154815290600101906020018083116114a457829003601f168201915b50505050508152602001600282018054600181600116156101000203166002900480601f0160208091040260200160405190810160405280929190818152602001828054600181600116156101000203166002900480156115635780601f1061153857610100808354040283529160200191611563565b820191906000526020600020905b81548152906001019060200180831161154657829003601f168201915b50505050508152602001600382018054600181600116156101000203166002900480601f0160208091040260200160405190810160405280929190818152602001828054600181600116156101000203166002900480156116055780601f106115da57610100808354040283529160200191611605565b820191906000526020600020905b8154815290600101906020018083116115e857829003601f168201915b50505050508152602001600482018054600181600116156101000203166002900480601f0160208091040260200160405190810160405280929190818152602001828054600181600116156101000203166002900480156116a75780601f1061167c576101008083540402835291602001916116a7565b820191906000526020600020905b81548152906001019060200180831161168a57829003601f168201915b50505050508152602001600582018054600181600116156101000203166002900480601f0160208091040260200160405190810160405280929190818152602001828054600181600116156101000203166002900480156117495780601f1061171e57610100808354040283529160200191611749565b820191906000526020600020905b81548152906001019060200180831161172c57829003601f168201915b50505050508152602001600682018054600181600116156101000203166002900480601f0160208091040260200160405190810160405280929190818152602001828054600181600116156101000203166002900480156117eb5780601f106117c0576101008083540402835291602001916117eb565b820191906000526020600020905b8154815290600101906020018083116117ce57829003601f168201915b50505050508152602001600782018054600181600116156101000203166002900480601f01602080910402602001604051908101604052809291908181526020018280546001816001161561010002031660029004801561188d5780601f106118625761010080835404028352916020019161188d565b820191906000526020600020905b81548152906001019060200180831161187057829003601f168201915b50505050508152602001600882018054600181600116156101000203166002900480601f01602080910402602001604051908101604052809291908181526020018280546001816001161561010002031660029004801561192f5780601f106119045761010080835404028352916020019161192f565b820191906000526020600020905b81548152906001019060200180831161191257829003601f168201915b50505050508152602001600982018054600181600116156101000203166002900480601f0160208091040260200160405190810160405280929190818152602001828054600181600116156101000203166002900480156119d15780601f106119a6576101008083540402835291602001916119d1565b820191906000526020600020905b8154815290600101906020018083116119b457829003601f168201915b50505050508152602001600a82018054600181600116156101000203166002900480601f016020809104026020016040519081016040528092919081815260200182805460018160011615610100020316600290048015611a735780601f10611a4857610100808354040283529160200191611a73565b820191906000526020600020905b815481529060010190602001808311611a5657829003601f168201915b50505050508152602001600b82018054600181600116156101000203166002900480601f016020809104026020016040519081016040528092919081815260200182805460018160011615610100020316600290048015611b155780601f10611aea57610100808354040283529160200191611b15565b820191906000526020600020905b815481529060010190602001808311611af857829003601f168201915b50505050508152602001600c82018054600181600116156101000203166002900480601f016020809104026020016040519081016040528092919081815260200182805460018160011615610100020316600290048015611bb75780601f10611b8c57610100808354040283529160200191611bb7565b820191906000526020600020905b815481529060010190602001808311611b9a57829003601f168201915b50505050508152602001600d82018054600181600116156101000203166002900480601f016020809104026020016040519081016040528092919081815260200182805460018160011615610100020316600290048015611c595780601f10611c2e57610100808354040283529160200191611c59565b820191906000526020600020905b815481529060010190602001808311611c3c57829003601f168201915b50505050508152602001600e82018054600181600116156101000203166002900480601f016020809104026020016040519081016040528092919081815260200182805460018160011615610100020316600290048015611cfb5780601f10611cd057610100808354040283529160200191611cfb565b820191906000526020600020905b815481529060010190602001808311611cde57829003601f168201915b50505050508152602001600f82018054600181600116156101000203166002900480601f016020809104026020016040519081016040528092919081815260200182805460018160011615610100020316600290048015611d9d5780601f10611d7257610100808354040283529160200191611d9d565b820191906000526020600020905b815481529060010190602001808311611d8057829003601f168201915b505050505081526020016010820160009054906101000a900460ff1615151515815250509050919050565b6000600582604051611dda9190613634565b9081526020016040518091039020600a0160009054906101000a900460ff169050919050565b611e08612534565b600482604051611e189190613634565b908152602001604051809103902060080160009054906101000a900460ff16611e76576040517f08c379a0000000000000000000000000000000000000000000000000000000008152600401611e6d9061379f565b60405180910390fd5b600482604051611e869190613634565b908152602001604051809103902060405180610120016040529081600082018054600181600116156101000203166002900480601f016020809104026020016040519081016040528092919081815260200182805460018160011615610100020316600290048015611f395780601f10611f0e57610100808354040283529160200191611f39565b820191906000526020600020905b815481529060010190602001808311611f1c57829003601f168201915b50505050508152602001600182018054600181600116156101000203166002900480601f016020809104026020016040519081016040528092919081815260200182805460018160011615610100020316600290048015611fdb5780601f10611fb057610100808354040283529160200191611fdb565b820191906000526020600020905b815481529060010190602001808311611fbe57829003601f168201915b50505050508152602001600282018054600181600116156101000203166002900480601f01602080910402602001604051908101604052809291908181526020018280546001816001161561010002031660029004801561207d5780601f106120525761010080835404028352916020019161207d565b820191906000526020600020905b81548152906001019060200180831161206057829003601f168201915b50505050508152602001600382018054600181600116156101000203166002900480601f01602080910402602001604051908101604052809291908181526020018280546001816001161561010002031660029004801561211f5780601f106120f45761010080835404028352916020019161211f565b820191906000526020600020905b81548152906001019060200180831161210257829003601f168201915b50505050508152602001600482018054600181600116156101000203166002900480601f0160208091040260200160405190810160405280929190818152602001828054600181600116156101000203166002900480156121c15780601f10612196576101008083540402835291602001916121c1565b820191906000526020600020905b8154815290600101906020018083116121a457829003601f168201915b50505050508152602001600582018054600181600116156101000203166002900480601f0160208091040260200160405190810160405280929190818152602001828054600181600116156101000203166002900480156122635780601f1061223857610100808354040283529160200191612263565b820191906000526020600020905b81548152906001019060200180831161224657829003601f168201915b50505050508152602001600682018054600181600116156101000203166002900480601f0160208091040260200160405190810160405280929190818152602001828054600181600116156101000203166002900480156123055780601f106122da57610100808354040283529160200191612305565b820191906000526020600020905b8154815290600101906020018083116122e857829003601f168201915b50505050508152602001600782018054600181600116156101000203166002900480601f0160208091040260200160405190810160405280929190818152602001828054600181600116156101000203166002900480156123a75780601f1061237c576101008083540402835291602001916123a7565b820191906000526020600020905b81548152906001019060200180831161238a57829003601f168201915b505050505081526020016008820160009054906101000a900460ff1615151515815250509050919050565b828054600181600116156101000203166002900490600052602060002090601f016020900481019282601f1061241357805160ff1916838001178555612441565b82800160010185558215612441579182015b82811115612440578251825591602001919060010190612425565b5b50905061244e9190612582565b5090565b604051806101600160405280606081526020016060815260200160608152602001606081526020016060815260200160608152602001606081526020016060815260200160608152602001606081526020016000151581525090565b604051806102200160405280606081526020016060815260200160608152602001606081526020016060815260200160608152602001606081526020016060815260200160608152602001606081526020016060815260200160608152602001606081526020016060815260200160608152602001606081526020016000151581525090565b60405180610120016040528060608152602001606081526020016060815260200160608152602001606081526020016060815260200160608152602001606081526020016000151581525090565b6125a491905b808211156125a0576000816000905550600101612588565b5090565b90565b6000813590506125b68161398c565b92915050565b600082601f8301126125cd57600080fd5b81356125e06125db82613892565b613865565b915080825260208301602083018583830111156125fc57600080fd5b612607838284613939565b50505092915050565b600082601f83011261262157600080fd5b813561263461262f826138be565b613865565b9150808252602083016020830185838301111561265057600080fd5b61265b838284613939565b50505092915050565b6000610220828403121561267757600080fd5b612682610220613865565b9050600082013567ffffffffffffffff81111561269e57600080fd5b6126aa848285016125bc565b600083015250602082013567ffffffffffffffff8111156126ca57600080fd5b6126d6848285016125bc565b602083015250604082013567ffffffffffffffff8111156126f657600080fd5b612702848285016125bc565b604083015250606082013567ffffffffffffffff81111561272257600080fd5b61272e848285016125bc565b606083015250608082013567ffffffffffffffff81111561274e57600080fd5b61275a848285016125bc565b60808301525060a082013567ffffffffffffffff81111561277a57600080fd5b612786848285016125bc565b60a08301525060c082013567ffffffffffffffff8111156127a657600080fd5b6127b2848285016125bc565b60c08301525060e082013567ffffffffffffffff8111156127d257600080fd5b6127de848285016125bc565b60e08301525061010082013567ffffffffffffffff8111156127ff57600080fd5b61280b848285016125bc565b6101008301525061012082013567ffffffffffffffff81111561282d57600080fd5b612839848285016125bc565b6101208301525061014082013567ffffffffffffffff81111561285b57600080fd5b612867848285016125bc565b6101408301525061016082013567ffffffffffffffff81111561288957600080fd5b612895848285016125bc565b6101608301525061018082013567ffffffffffffffff8111156128b757600080fd5b6128c3848285016125bc565b610180830152506101a082013567ffffffffffffffff8111156128e557600080fd5b6128f1848285016125bc565b6101a0830152506101c082013567ffffffffffffffff81111561291357600080fd5b61291f848285016125bc565b6101c0830152506101e082013567ffffffffffffffff81111561294157600080fd5b61294d848285016125bc565b6101e083015250610200612963848285016125a7565b6102008301525092915050565b6000610160828403121561298357600080fd5b61298e610160613865565b9050600082013567ffffffffffffffff8111156129aa57600080fd5b6129b6848285016125bc565b600083015250602082013567ffffffffffffffff8111156129d657600080fd5b6129e2848285016125bc565b602083015250604082013567ffffffffffffffff811115612a0257600080fd5b612a0e848285016125bc565b604083015250606082013567ffffffffffffffff811115612a2e57600080fd5b612a3a848285016125bc565b606083015250608082013567ffffffffffffffff811115612a5a57600080fd5b612a66848285016125bc565b60808301525060a082013567ffffffffffffffff811115612a8657600080fd5b612a92848285016125bc565b60a08301525060c082013567ffffffffffffffff811115612ab257600080fd5b612abe848285016125bc565b60c08301525060e082013567ffffffffffffffff811115612ade57600080fd5b612aea848285016125bc565b60e08301525061010082013567ffffffffffffffff811115612b0b57600080fd5b612b17848285016125bc565b6101008301525061012082013567ffffffffffffffff811115612b3957600080fd5b612b45848285016125bc565b61012083015250610140612b5b848285016125a7565b6101408301525092915050565b600060208284031215612b7a57600080fd5b600082013567ffffffffffffffff811115612b9457600080fd5b612ba084828501612610565b91505092915050565b600080600080600080600080610100898b031215612bc657600080fd5b600089013567ffffffffffffffff811115612be057600080fd5b612bec8b828c01612610565b985050602089013567ffffffffffffffff811115612c0957600080fd5b612c158b828c01612610565b975050604089013567ffffffffffffffff811115612c3257600080fd5b612c3e8b828c01612610565b965050606089013567ffffffffffffffff811115612c5b57600080fd5b612c678b828c01612610565b955050608089013567ffffffffffffffff811115612c8457600080fd5b612c908b828c01612610565b94505060a089013567ffffffffffffffff811115612cad57600080fd5b612cb98b828c01612610565b93505060c089013567ffffffffffffffff811115612cd657600080fd5b612ce28b828c01612610565b92505060e089013567ffffffffffffffff811115612cff57600080fd5b612d0b8b828c01612610565b9150509295985092959890939650565b60008060408385031215612d2e57600080fd5b600083013567ffffffffffffffff811115612d4857600080fd5b612d5485828601612610565b925050602083013567ffffffffffffffff811115612d7157600080fd5b612d7d85828601612664565b9150509250929050565b60008060408385031215612d9a57600080fd5b600083013567ffffffffffffffff811115612db457600080fd5b612dc085828601612610565b925050602083013567ffffffffffffffff811115612ddd57600080fd5b612de985828601612970565b9150509250929050565b612dfc8161392d565b82525050565b612e0b8161392d565b82525050565b6000612e1c826138f5565b612e268185613911565b9350612e36818560208601613948565b612e3f8161397b565b840191505092915050565b6000612e55826138f5565b612e5f8185613922565b9350612e6f818560208601613948565b80840191505092915050565b6000612e86826138ea565b612e908185613900565b9350612ea0818560208601613948565b612ea98161397b565b840191505092915050565b6000612ebf826138ea565b612ec98185613922565b9350612ed9818560208601613948565b80840191505092915050565b6000612ef2602883613911565b91507f4365727469666963617465206e6f7420666f756e64206f7220616c726561647960008301527f207265766f6b65640000000000000000000000000000000000000000000000006020830152604082019050919050565b6000612f58601383613911565b91507f55736572206e6f742072656769737465726564000000000000000000000000006000830152602082019050919050565b6000612f98601a83613911565b91507f496e737469747574696f6e206e6f7420726567697374657265640000000000006000830152602082019050919050565b6000612fd8602983613911565b91507f496e737469747574696f6e20776974682074686973204e616d6520616c72656160008301527f64792065786973747300000000000000000000000000000000000000000000006020830152604082019050919050565b600061303e603883613911565b91507f496e737469747574696f6e20776974682074686973205265676973747261746960008301527f6f6e204e756d62657220616c72656164792065786973747300000000000000006020830152604082019050919050565b60006130a4601783613911565b91507f5573657220616c726561647920726567697374657265640000000000000000006000830152602082019050919050565b60006130e4602183613911565b91507f496e737469747574696f6e20494420616c72656164792072656769737465726560008301527f64000000000000000000000000000000000000000000000000000000000000006020830152604082019050919050565b600061314a601583613911565b91507f4365727469666963617465206e6f7420666f756e6400000000000000000000006000830152602082019050919050565b600061318a603383613911565b91507f496e737469747574696f6e20776974682074686973204f6666696369616c204560008301527f6d61696c20616c726561647920657869737473000000000000000000000000006020830152604082019050919050565b60006131f0601a83613911565b91507f436572746966696361746520616c7265616479206973737565640000000000006000830152602082019050919050565b60006101208301600083015184820360008601526132418282612e7b565b9150506020830151848203602086015261325b8282612e7b565b915050604083015184820360408601526132758282612e7b565b9150506060830151848203606086015261328f8282612e7b565b915050608083015184820360808601526132a98282612e7b565b91505060a083015184820360a08601526132c38282612e7b565b91505060c083015184820360c08601526132dd8282612e7b565b91505060e083015184820360e08601526132f78282612e7b565b91505061010083015161330e610100860182612df3565b508091505092915050565b60006102208301600083015184820360008601526133378282612e7b565b915050602083015184820360208601526133518282612e7b565b9150506040830151848203604086015261336b8282612e7b565b915050606083015184820360608601526133858282612e7b565b9150506080830151848203608086015261339f8282612e7b565b91505060a083015184820360a08601526133b98282612e7b565b91505060c083015184820360c08601526133d38282612e7b565b91505060e083015184820360e08601526133ed8282612e7b565b9150506101008301518482036101008601526134098282612e7b565b9150506101208301518482036101208601526134258282612e7b565b9150506101408301518482036101408601526134418282612e7b565b91505061016083015184820361016086015261345d8282612e7b565b9150506101808301518482036101808601526134798282612e7b565b9150506101a08301518482036101a08601526134958282612e7b565b9150506101c08301518482036101c08601526134b18282612e7b565b9150506101e08301518482036101e08601526134cd8282612e7b565b9150506102008301516134e4610200860182612df3565b508091505092915050565b600061016083016000830151848203600086015261350d8282612e7b565b915050602083015184820360208601526135278282612e7b565b915050604083015184820360408601526135418282612e7b565b9150506060830151848203606086015261355b8282612e7b565b915050608083015184820360808601526135758282612e7b565b91505060a083015184820360a086015261358f8282612e7b565b91505060c083015184820360c08601526135a98282612e7b565b91505060e083015184820360e08601526135c38282612e7b565b9150506101008301518482036101008601526135df8282612e7b565b9150506101208301518482036101208601526135fb8282612e7b565b915050610140830151613612610140860182612df3565b508091505092915050565b60006136298284612eb4565b915081905092915050565b60006136408284612e4a565b915081905092915050565b60006020820190506136606000830184612e02565b92915050565b600060208201905081810360008301526136808184612e11565b905092915050565b600060408201905081810360008301526136a28185612e11565b905081810360208301526136b68184612e11565b90509392505050565b600060208201905081810360008301526136d881612ee5565b9050919050565b600060208201905081810360008301526136f881612f4b565b9050919050565b6000602082019050818103600083015261371881612f8b565b9050919050565b6000602082019050818103600083015261373881612fcb565b9050919050565b6000602082019050818103600083015261375881613031565b9050919050565b6000602082019050818103600083015261377881613097565b9050919050565b60006020820190508181036000830152613798816130d7565b9050919050565b600060208201905081810360008301526137b88161313d565b9050919050565b600060208201905081810360008301526137d88161317d565b9050919050565b600060208201905081810360008301526137f8816131e3565b9050919050565b600060208201905081810360008301526138198184613223565b905092915050565b6000602082019050818103600083015261383b8184613319565b905092915050565b6000602082019050818103600083015261385d81846134ef565b905092915050565b6000604051905081810181811067ffffffffffffffff8211171561388857600080fd5b8060405250919050565b600067ffffffffffffffff8211156138a957600080fd5b601f19601f8301169050602081019050919050565b600067ffffffffffffffff8211156138d557600080fd5b601f19601f8301169050602081019050919050565b600081519050919050565b600081519050919050565b600082825260208201905092915050565b600082825260208201905092915050565b600081905092915050565b60008115159050919050565b82818337600083830152505050565b60005b8381101561396657808201518184015260208101905061394b565b83811115613975576000848401525b50505050565b6000601f19601f8301169050919050565b6139958161392d565b81146139a057600080fd5b5056fea365627a7a7231582007b8d6f341f526d014f93da58b7012ae8bc31a9a531b0198844452f518a22cf56c6578706572696d656e74616cf564736f6c63430005100040",
  "source": "// SPDX-License-Identifier: MIT\npragma solidity ^0.5.16;\npragma experimental ABIEncoderV2;\n\ncontract CertiChain {\n    /////////////////////////////\n    // Institution Section\n    /////////////////////////////\n    struct Institution {\n        string institutionName;\n        string affiliation;\n        string regNumber;\n        string dateOfEstablishment;\n        string institutionType; \n        string streetAddress;\n        string city;\n        string state;\n        string postalCode;\n        string country;\n        string officialEmail;\n        string phoneNumber;\n        string adminName;\n        string adminDesignation;\n        string adminEmail;\n        string adminPhone;\n        bool exists;\n    }\n    \n    mapping(string => Institution) private institutions;\n    // Additional mappings for uniqueness checks:\n    mapping(string => bool) private registeredRegNumbers;\n    mapping(string => bool) private registeredOfficialEmails;\n    mapping(string => bool) private registeredInstitutionNames;\n    \n    event InstitutionRegistered(string institutionID);\n\n    function registerInstitution(\n        string memory _institutionID,\n        Institution memory _institution\n    ) public {\n        require(!institutions[_institutionID].exists, \"Institution ID already registered\");\n        require(!registeredRegNumbers[_institution.regNumber], \"Institution with this Registration Number already exists\");\n        require(!registeredOfficialEmails[_institution.officialEmail], \"Institution with this Official Email already exists\");\n        require(!registeredInstitutionNames[_institution.institutionName], \"Institution with this Name already exists\");\n        \n        // Store the institution details\n        institutions[_institutionID] = _institution;\n        \n        // Mark the unique fields as registered\n        registeredRegNumbers[_institution.regNumber] = true;\n        registeredOfficialEmails[_institution.officialEmail] = true;\n        registeredInstitutionNames[_institution.institutionName] = true;\n        \n        emit InstitutionRegistered(_institutionID);\n    }\n    \n    function getInstitution(string memory _institutionID) public view returns (Institution memory) {\n        require(institutions[_institutionID].exists, \"Institution not registered\");\n        return institutions[_institutionID];\n    }\n    \n    /////////////////////////////\n    // Certificate Section\n    /////////////////////////////\n    struct Certificate {\n        string certID;\n        string studentName;\n        string course;\n        string issueDate;\n        string dob;                   // Date of birth of the certificate recipient\n        string courseDuration;\n        string issuingAuthorityName;  // Name of the certificate issuing authority\n        string userEmail;             // User's email address (linking certificate to the user)\n        bool exists;\n    }\n    \n    mapping(string => Certificate) private certificates;\n    \n    event CertificateIssued(string certID, string issuingAuthorityName);\n    \n    function issueCertificate(\n        string memory _certID,\n        string memory _studentName,\n        string memory _course,\n        string memory _issueDate,\n        string memory _dob,\n        string memory _courseDuration,\n        string memory _issuingAuthorityName,\n        string memory _userEmail\n    ) public {\n        require(!certificates[_certID].exists, \"Certificate already issued\");\n        certificates[_certID] = Certificate(\n            _certID, \n            _studentName, \n            _course, \n            _issueDate, \n            _dob, \n            _courseDuration, \n            _issuingAuthorityName,\n            _userEmail,\n            true\n        );\n        emit CertificateIssued(_certID, _issuingAuthorityName);\n    }\n    \n    function getCertificate(string memory _certID) public view returns (Certificate memory) {\n        require(certificates[_certID].exists, \"Certificate not found\");\n        return certificates[_certID];\n    }\n    \n    // New: Event to signal that a certificate has been revoked\n    event CertificateRevoked(string certID);\n    \n    // New: Function to revoke a certificate\n    function revokeCertificate(string memory _certID) public {\n        require(certificates[_certID].exists, \"Certificate not found or already revoked\");\n        certificates[_certID].exists = false;\n        emit CertificateRevoked(_certID);\n    }\n    \n    /////////////////////////////\n    // User Section\n    /////////////////////////////\n    struct UserProfile {\n        string userId;      // Unique user ID\n        string name;\n        string dob;\n        string phoneNumber;\n        string country;\n        string pincode;\n        string streetAddress;\n        string city;\n        string state;\n        string email;       // User's login email\n        bool exists;\n    }\n    \n    mapping(string => UserProfile) private userProfiles;\n    \n    event UserRegistered(string userId);\n    \n    function registerUser(string memory _userId, UserProfile memory _profile) public {\n        require(!userProfiles[_userId].exists, \"User already registered\");\n        userProfiles[_userId] = _profile;\n        userProfiles[_userId].exists = true;\n        emit UserRegistered(_userId);\n    }\n    \n    function getUser(string memory _userId) public view returns (UserProfile memory) {\n        require(userProfiles[_userId].exists, \"User not registered\");\n        return userProfiles[_userId];\n    }\n    \n    // Helper function to check if a user is registered\n    function isUserRegistered(string memory _userId) public view returns (bool) {\n        return userProfiles[_userId].exists;\n    }\n}\n",
  "sourcePath": "/home/adarsh/Desktop/project/blockchain/contracts/CertiChain.sol",
  "compiler": {
    "name": "solc",
    "version": "0.5.16+commit.9c3226ce.Emscripten.clang"
  },
  "schemaVersion": "3.4.16",
  "updatedAt": "2025-05-06T16:59:15.572Z",
  "networkType": "ethereum",
  "devdoc": {
    "methods": {}
  },
  "userdoc": {
    "methods": {}
  }
}